:020000040800F2
:10000000F01400204501000805240008952300088D
:10001000CD230008E50D00081D5900080000000070
:10002000000000000000000000000000A1330008F4
:10003000BD17000800000000B5270008274400088D
:100040007D5900085F0100085F010008612C00086D
:100050005F0100085F0100085F0100085F01000800
:100060005F0100085F0100085F0100085F010008F0
:100070005F0100085F0100085F0100085F010008E0
:100080005F0100085F0100085F0100085F010008D0
:100090005F0100085F0100085F0100085F010008C0
:1000A0005F0100085F0100085F0100085F010008B0
:1000B0005F0100080D4500085F0100085F010008AE
:1000C0005F0100085F0100085F0100085F01000890
:1000D0005F0100086D540008E15500085F01000849
:1000E0005F0100085F0100085F0100085F01000870
:1000F0005F0100085F0100085F0100085F01000860
:100100005F0100085F0100085F0100085F0100084F
:10011000555200085F0100085F0100085F010008F8
:100120005F0100085F0100085F0100085F0100082F
:10013000DFF80CD000F0A8FC004800474966000832
:10014000F01400200648804706480047FEE7FEE717
:10015000FEE7FEE7FEE7FEE7FEE7FEE7FEE7FEE777
:10016000AD440008310100080649074A08685043B9
:1001700043F23902104408604008704701490860A2
:1001800070470000980000206D4EC64140EA010310
:100190009B0703D009E008C9121F08C0042AFAD23D
:1001A00003E011F8013B00F8013B521EF9D2704701
:1001B000D2B201E000F8012B491EFBD270470022A9
:1001C000F6E710B513460A4604461946FFF7F0FF56
:1001D000204610BDF0B480EA0102D40F4200B2EB19
:1001E000410F02D20246084611464A0042D0C30DD2
:1001F000DDB2C1F3C752AD1A202D35DAC1F31601B5
:1002000041F4000204B15242C5F1200602FA06F19F
:100210002A411044B3EBD05F23D0C4B1012DA0EB31
:10022000C35009DCF0BC4FF0004202EAC35200F5B3
:100230000000DBB200F083BB400000F1807000EBF7
:10024000C350A0F1807040EAD170490009E049082C
:1002500041EAC071A0EBC35000F50000400800EB7C
:10026000C350F0BC00F062BB6142012202EB4101CD
:10027000001BF6E7F0BC704781F00041AAE780F070
:100280000040A7E780EA010210B502F000434000F9
:1002900026D04A0023D04FEA106101EB1261C0F36F
:1002A0005600C2F3560240F4000042F40002A0FBE4
:1002B0000220A1F17F014FEA0040140401D000F1B7
:1002C000010050EA124001D44000491EC2B20C069F
:1002D00004EBD010401C4008802A02D003E000202C
:1002E00010BD20F00100002900DA0020184310BDE5
:1002F00030B480EA010202F0004530F0004221F003
:10030000004015D0A0B1C0F3C753C2F3C754C2F325
:100310001601C0F31600E41A41F4000140F4000293
:100320007D34914201D3641C00E04900002C02DAC4
:1003300030BC002070474FF400000023914201D3ED
:10034000891A034340084FEA4101F7D151B1914264
:1003500002D14FF0004105E002D24FF0010101E06F
:100360006FF0010103EBC450284430BC00F0DEBA4A
:100370002DE9FE4F804681EA0300C00F0C46009035
:1003800021F0004123F00045B8EB0200A94105D25D
:100390004046214690461C460B46024623F000404C
:1003A000104304D14046214603B0BDE8F08F270D2D
:1003B000C7F30A00C3F30A510290401A0190402883
:1003C00066DAC3F3130040F4801B0098924620B114
:1003D0000023D2EB030A63EB0B0B01985946C0F1E3
:1003E0004002504600F071FA06460D465046594606
:1003F000019A00F089FA10EB08006141002487EAB5
:10040000115284EAE7731A433BD0009A3AB3019A37
:10041000012A4FEA075210DC001B61EB02014FF08A
:10042000004202EA0752CDE90042001C41F580116A
:1004300032462B4600F0BDFAB6E7001B61EB020125
:10044000001C41F5801300185B412018A2F500172D
:1004500047EB030140EAD570B6196D4111E06D0814
:100460004FEA360645EAC0754FEA0752001B61EBBA
:100470000201001C41F5801149084FEA30000019C3
:10048000514132462B4603B0BDE8F04F00F084BA2C
:100490000098012240000023D0EB020263EBE073DE
:1004A000009821464FEAE074B8EB000061EB0401CC
:1004B000E9E783F000435BE781F0004158E72DE96D
:1004C000FE4F81EA030404F0004421F0004100944F
:1004D0004FF0000B23F0004350EA010402D052EA2F
:1004E000030404D10020014603B0BDE8F08FC3F33C
:1004F0000A54C1F30A552C44A4F2F3340194A0FB2E
:100500000254C1F3130141F48011C3F3130343F404
:10051000801301FB024400FB034E840A970A44EA5D
:10052000815447EA8357A4FB076802958D0A05FBAF
:1005300007854FEA932C04FB0C542705029D4FEAD4
:10054000065847EA1637B5EB08056EEB070C870E21
:10055000920E47EA811742EA8312A7FB0201B6EB2B
:100560000B0164EB00042B0D43EA0C335E1844EBE3
:100570001C50DA465146E7FB0201C5F313044FEA6B
:100580000B3343EA14534FEA0432019C43EA060357
:10059000A4F10C040294009CCDE900B400F009FA27
:1005A000A2E72DE9F04D81EA030404F0004B21F0AD
:1005B000004514464FF0000A23F0004150EA0502BE
:1005C00020D054EA01021DD0C5F30A570246C5F3F4
:1005D0001303C1F31300C1F30A5640F4801543F42A
:1005E0008013A7EB0608101BD64608F2FD3873EB04
:1005F000050002D308F1010801E092185B41B8F14F
:10060000000F03DA00200146BDE8F08D00204FF412
:100610008011064684460EE0171B73EB050705D3D1
:10062000121B63EB050306434CEA010C49084FEA31
:10063000300092185B4150EA0107EDD152EA030005
:1006400012D082EA040083EA0501084303D10022A4
:100650004FF0004308E0101BAB4102D201220023FF
:1006600002E06FF0010253101AEB06004CEB085148
:1006700010EB0A0041EB0B01BDE8F04D00F08CB926
:10068000C10F80EAE0700844CA079623002100F0F9
:1006900056B996230022114600F051B90EB5C10F8C
:1006A00080EAE0700844CA07002140F233438DE835
:1006B0000E000A460B4600F07CF903B000BD0EB5F3
:1006C00040F2334102910021CDE900110A460B4668
:1006D00000F06FF903B000BD00F0004220F00040D0
:1006E000C10DC0F3160040F400007F2901DA00209C
:1006F0007047962903DCC1F19601C84001E09639A4
:100700008840002AF4D04042704720F00040C10DDC
:10071000C0F3160040F400007F2901DA0020704782
:10072000962903DCC1F19601C8407047963988408C
:100730007047C1F30A5210B5C1F3130140F2FF3301
:1007400041F480119A4201DA002010BD40F2334397
:100750009A42A2F2334203DC524200F0C5F810BDC7
:10076000904010BD00F0004230F000400AD0C10DB2
:1007700001F56071C0F3160042EA0151C20840075A
:1007800011437047002001467047000030B5002932
:1007900004DB4FF00044404264EB0101002B04DB1A
:1007A0004FF00044524264EB03038B4208BF824285
:1007B00030BD000030B5002904DB4FF0004440425A
:1007C00064EB0101002B04DB4FF00044524264EB68
:1007D0000303994208BF904230BD000001F000437E
:1007E00030B421F0004150EA010206D00A0DA2F512
:1007F0006072C1F31301002A02DC30BC0020704794
:10080000440F44EAC104C100E01830BC00EBC25000
:1008100000F08CB8002801DBC0F10040002901DBAA
:10082000C1F1004181427047002801DBC0F1004066
:10083000002901DBC1F100418842704730B50B4609
:10084000014600202022012409E021FA02F59D4200
:1008500005D303FA02F5491B04FA02F52844151ED4
:10086000A2F10102F1DC30BD2DE9F05F0546002068
:1008700092469B4688460646814640241BE0284611
:1008800041464746224600F02FF853465A46C01AC2
:10089000914110D311461846224600F016F82D1A41
:1008A00067EB01084F4622460120002100F00DF8B9
:1008B00017EB00094E41201EA4F10104DFDC48467D
:1008C00031462A464346BDE8F09F202A04DB203A01
:1008D00000FA02F1002070479140C2F1200320FA93
:1008E00003F3194390407047202A04DB203A21FA91
:1008F00002F00021704721FA02F3D040C2F1200239
:100900009140084319467047202A06DBCB17203A4E
:1009100041FA02F043EAE07306E041FA02F3D04004
:10092000C2F1200291400843194670470029A8BF30
:100930007047401C490008BF20F00100704710B408
:10094000B0FA80FC00FA0CF050EA010404BF10BCBD
:10095000704749B1CCF1200421FA04F411FA0CF1EA
:1009600018BF012121430843A3EB0C01CB1D010655
:10097000000A002BBEBF002010BC704700EBC35024
:1009800010440029A4BF10BC7047401C490008BF98
:1009900020F0010010BC704710B5002B08DA401C95
:1009A00041F1000192185B411A4301D120F001008E
:1009B00010BD2DE9F04D92469B4611B1B1FA81F27E
:1009C00002E0B0FA80F220329046FFF77EFF044644
:1009D0000F4640EA0A0041EA0B0153465A460843D3
:1009E00003D120463946BDE8F08D114653EA010097
:1009F00015D0C8F140025046FFF776FF05460E4677
:100A0000504659464246FFF760FF084301D0012097
:100A100000E00020054346EAE0762C4337430A987D
:100A20004FEA4453A0EB08004FEAD4240A304FF0B9
:100A3000000244EA47544FEAD72502D50020014678
:100A4000D1E7010510196941DDE90845001969413F
:100A5000BDE8F04DA0E7C1F30A52C1F3130140F223
:100A6000FF3341F480119A4202DA002001467047B8
:100A700040F233439A42A2F2334202DC5242FFF781
:100A800033BFFFF722BF0000064C074D06E0E068C9
:100A900040F0010394E8070098471034AC42F6D3C5
:100AA000FFF74AFB9C6C0008BC6C000821B182680F
:100AB00042F00102826003E0826822F0010282605B
:100AC000704721B1826842F48072826003E08268DC
:100AD00022F4807282607047014600208A6812F01A
:100AE000040F01D0012000E00020704701460020E3
:100AF0008A6812F0080F01D0012000E00020704742
:100B000030B502460020002350680F4C20400D797C
:100B10000C6844EA05242043506090680B4C204048
:100B2000D1E902542C434D7944EA450420439060B6
:100B3000D06A20F470000C7C641EE4B2234340EAC7
:100B40000350D06230BD0000FFFEF0FFFDF7F1FF63
:100B5000F0B504460D4600200021092D11DDE068A6
:100B6000A5F10A0606EB4607072606FA07F18843B1
:100B7000A5F10A0606EB460603FA06F10843E06013
:100B80000CE0206905EB4507072606FA07F18843C4
:100B900005EB450603FA06F108432061072A0FDA40
:100BA000606B561E06EB86071F2606FA07F1884380
:100BB000561E06EB860605FA06F10843606322E03E
:100BC0000D2A0FDA206BD61F06EB86071F2606FAC2
:100BD00007F18843D61F06EB860605FA06F108439F
:100BE000206310E0E06AA2F10D0606EB86071F26DF
:100BF00006FA07F18843A2F10D0606EB860605FA10
:100C000006F10843E062F0BD816841F008018160AF
:100C1000704721B1826842F4A002826003E08268DA
:100C200022F4A00282607047816841F00401816073
:100C30007047000000B591B000F0C6FF334800F0E7
:100C400025FB334801903348029000200390012097
:100C500004900020059006904FF48070079080006B
:100C600008902020099000020A9000200B9001A912
:100C7000264800F0B5FB0121244800F0FBFA0020D3
:100C80000C908DF8340001208DF835004FF4602071
:100C90000E9000200F9001208DF840000CA91C48F8
:100CA0004C38FFF72DFF4FF4404001F03BFE052389
:100CB0000122114616484C38FFF74AFF012114481B
:100CC0004C38FFF7FEFE012111484C38FFF7EEFECD
:100CD0000F484C38FFF798FF00BF0D484C38FFF71E
:100CE00005FF0028F9D10A484C38FFF79DFF00BFE7
:100CF00007484C38FFF7F0FE0028F9D101210448DD
:100D00004C38FFF786FF11B000BD0000080002401C
:100D10004C240140960000202DE9F04104460D4688
:100D20001646FF2C03D90CA004F096FEFF240F2DCD
:100D300003D90EA004F090FE0F250F2E03D910A0AA
:100D400004F08AFE0F26200400EB053000EB062796
:100D50003846BDE8F0810000626C6F636B206D6106
:100D600078203A3235362121000000007365637423
:100D70006F72206D6178203A313621210000000029
:100D800070616765206D6178203A3136212100005D
:100D900010B5012001F022FE002001F01FFE10BD61
:100DA00008B50146002000900348009000980844D0
:100DB00000900098008808BD006C00400149086060
:100DC0007047000000860D4208B500220092044AD8
:100DD0000092009A02440092009A116008BD00003F
:100DE000006C004010B503E003A004F035FE00E005
:100DF000FAE700BF10BD00000D0A5761726E6E6900
:100E00006E672121204275734661756C74204F63B3
:100E100063757265640D0A00F0B505460E464FF61F
:100E2000FF7418E0287802F049F884EA00240027CB
:100E30000EE014F4004F05D048F2050080EA4400AB
:100E400084B203E04FF6FF7000EA4404781CC7B296
:100E5000082FEEDB6D1C3000A6F101018EB2E1D14E
:100E6000204602F03BF8F0BD2DE9F04786B004467D
:100E70000020029003900490059081460025824650
:100E80000026FFF79BFF0220864B002201460090C0
:100E9000104600F02DFC83483E3890F83F1090F843
:100EA0003E0001EB002085B2002D03DD3C2D01DC6E
:100EB000258001E03C20208021887BA004F0CCFD2F
:100EC0000220784B9B1C002203210090104600F06A
:100ED0000FFC74483E3890F8411090F8400001EB48
:100EE000002085B2002D04DDB5F5B46F01DC65800E
:100EF00001E03C206080618877A004F0ADFD042013
:100F0000684B083B002207210090104600F0F0FBE0
:100F100064483E38D0F836603046FFF723FC074679
:100F200000221346FFF746FC0ED23046FFF71AFCAC
:100F300007460022744BFFF729FC05D259483E387A
:100F4000D0F83600A06301E07048A063A06BFFF703
:100F500009FC07463A460B466DA004F07DFD0220D1
:100F6000504B1B1D002208210090104600F0C0FBD2
:100F70004C483E3890F8431090F8420001EB0020B6
:100F800085B2002D04DBB5F5B46F01DCA58001E06E
:100F90000020A080A1886BA004F05EFD0120414BE1
:100FA0009B1D002209210090104600F0A1FB3D4846
:100FB0003E3890F8445029466FA004F04DFD0120C2
:100FC000384BDB1D00220A210090104600F090FBF8
:100FD00034483E3890F84550002D03DD0A2D01DCE1
:100FE000E57101E00320E071E1796FA004F034FDC8
:100FF00004202C4B1B1F00220B210090104600F0F8
:1010000077FB28483E38D0F83A603046FFF7AAFB15
:10101000074600221346FFF7CDFB12D23046FFF7FA
:10102000A1FB074600226C4BFFF7B0FB09D21D481D
:101030003E38D0F836103046FFF7F6FB01D2E663B3
:1010400001E06648E063E06BFFF78CFB07463A4639
:101050000B4663A004F000FD0420124B083300226D
:101060000C210090104600F043FB0E483E3890F8EB
:10107000471090F8460001EB002085B2A4F8095013
:10108000B4F8091063A004F0E7FC00F0B5FA207290
:10109000074639466BA004F0DFFC0020607406B000
:1010A000BDE8F0871E0100200D0A2A2A2A2A2A2AD2
:1010B0002A2A2A2A2A2A2A2AB2C9BCAFD6DCC6DAA8
:1010C0002D2D3E3E202564202A2A2A2A2A2A2A2A31
:1010D0002A2A2A0D0A0000000D0A2A2A2A2A2A2A68
:1010E0002A2A2A2A2A2A2A2AC9CFB1A8D6DCC6DA6D
:1010F0002D2D3E3E202564202A2A2A2A2A2A2A2A01
:101100002A2A2A200D0A0000000039400000C841A8
:101110000D0A2A2A2A2A2A2A2A2A2A2A2A2A2A2A6C
:10112000B5CDB1A8BEAFC5A8B6C82D2D3E3E202571
:10113000302E3266202A2A2A2A2A2A2A2A2A2A2ACB
:101140002A0D0A000D0A2A2A2A2A2A2A2A2A2A2AA3
:101150002A2A2A2ABFAACABCB2C9BCAFCAB1BCE4F7
:101160002D2D3E3E202564202A2A2A2A2A2A2A2A90
:101170002A2A2A0D0A0000000D0A2A2A2A2A2A2AC7
:101180002A2A2A2A2A2A2A2AD2D1B2C9BCAFCAFDBF
:10119000C1BF2D2D3E3E202564202A2A2A2A2A2A34
:1011A0002A2A2A2A2A0D0A000D0A2A2A2A2A2A2A43
:1011B0002A2A2A2A2A2A2A2AD6D8B4ABB4CECAFD89
:1011C0002D2D3E3E202564202A2A2A2A2A2A2A2A30
:1011D0002A2A2A0D0A000000000049400000484267
:1011E0000D0A2A2A2A2A2A2A2A2A2A2A2A2A2A2A9C
:1011F000B8DFB1A8BEAFC5A8B6C82D2D3E3E20258C
:10120000302E3266202A2A2A2A2A2A2A2A2A2A2AFA
:101210000D0A00000D0A2A2A2A2A2A2A2A2A2A2AFC
:101220002A2A2A2AB9A4D7F7B4CECAFD2D2D3E3ECC
:10123000202564202A2A2A2A2A2A2A2A2A2A2A0D0A
:101240000A0000000D0A2A2A2A2A2A2A2A2A2A2AD9
:101250002A2A2A2AB5E7B3D8B5E7C1BF2D2D3E3ECD
:101260002025642525202A2A2A2A2A2A2A2A2A2AC7
:101270002A0D0A0021B1026842F00102026004E076
:1012800002684FF6FE731A400260704701684FF61D
:10129000FE72114001600021016041608160C16007
:1012A0004B49884208D14A490839496841F00F0141
:1012B000474A083A51608AE045491431884208D1CA
:1012C00043490839496841F0F001414A083A516000
:1012D0007DE03F492831884208D13D4908394968B5
:1012E00041F470613A4A083A516070E038493C3143
:1012F000884208D136490839496841F47041344A76
:10130000083A516063E032495031884208D130498F
:101310000839496841F470212D4A083A516056E075
:101320002B496431884208D129490839496841F478
:101330007001274A083A516049E0254978318842CE
:1013400008D123490839496841F07061204A083AB8
:1013500051603CE01F49884206D1011F096841F0F5
:101360000F01021F116032E01A491431884208D17E
:101370001849091F096841F0F001164A121F11604F
:1013800025E014492831884208D11249091F09680B
:1013900041F470610F4A121F116018E00D493C3191
:1013A000884208D10B49091F096841F47041094A74
:1013B000121F11600BE007495031884207D10549DF
:1013C000091F096841F47021024A121F1160704719
:1013D00008000240080402400146486880B2704795
:1013E00010B50022026847F6F0739A430C6A8B68C6
:1013F00023430C6923434C6923438C692343CC6901
:1014000023434C6A23438C6A23431A430260CB680C
:1014100043600B6883604B68C36010BD70B50024E7
:10142000002500264FF47A713548FEF7C8FE35488E
:101430008068344908603448FFF7CEFFC0F5FA747D
:101440003048C068A04204DA2E488089201A86B24B
:1014500005E02C48C068C0F5FA70204486B22948DF
:10146000C46000683044401EB0F5FA7F06DA2548B3
:1014700000683044401E2349486006E02148006867
:101480003044A0F2F5101F4948601E484068A0F59E
:101490008071F33903D100201A49886004E01948AB
:1014A0004068401C1749886046B316480568406884
:1014B0001449096888420ADD002405E01348405DAC
:1014C0000F490855641C6D1CB442F7DB16E000247C
:1014D00012E0B5F5F97F05DC0C48405D0849085578
:1014E0006D1C08E0A5F58070F33804D10748405D15
:1014F000034908550025641CB442EADB304670BD40
:10150000EC0B0020DC0B00206C000240E8090020FE
:101510002DE9F04106460F4600240025A046164856
:101520000078012824D1FFF779FF0446002C09DD5B
:1015300000BF00E06D1CA542FCDB3946304601F0DF
:1015400059FC804600210D48FFF794FE4FF4FA71D4
:101550000B48FEF734FE00200749087001210748B8
:10156000FFF788FE012240F22441064804F034F9D6
:101570004046BDE8F0810000300000206C000240D1
:10158000E80900200044004008B5352005490870EE
:1015900001200B46002201460090104600F0D8F8CA
:1015A00008BD00008500002008B50121112001F0D0
:1015B000F5F98020ADF8000004208DF8030069469D
:1015C000014800F019FB08BD0010014008B50121D9
:1015D000112001F0E3F98020ADF8000010208DF813
:1015E000030003208DF802006946024800F004FB66
:1015F00008BD0000001001402DE9F84F4FF0000A2F
:101600000025AB46002400260027A046334800787A
:1016100078B90120324B002201460090104600F0BC
:1016200067F82F480078352808DD35202C490870E8
:1016300004E0FFF7A9FF00202849087004F04AFFE2
:101640001FFA80FA04F000FF85B204F093FE1FFA3F
:1016500080FBC5F30E062248067804F0CDFE84B266
:101660008CB94FF47A7005F0ABF91E4800F0C4F85D
:101670001B48007838B11A480078401E1849087095
:1016800004F0BAFE84B24FF47A7094FBF0F014497F
:10169000097800EB01094846FEF7F2FF804612493F
:1016A0004046FEF7EFFD11490090FEF721FE81460E
:1016B000FFF72BF8C7B20A2094FBF0F0C7B2084836
:1016C0000078864207D00120054B00220146009099
:1016D000104600F03DF83846BDE8F88F2A0000209B
:1016E0008500002040420F000000C8420000584220
:1016F0002DE9F04705460E4617461C46DDF82080CA
:101700003A4631462846FFF707FB814601F0C0FC08
:1017100001F052FD0B4908604FF4487000F06CF87E
:1017200001F06AFD084908600846006807498842D8
:1017300004D142464946204601F0EEFB01F0F2FD9D
:10174000BDE8F0877C000020800000201840EF00FA
:101750002DE9F04705460E4617461C46DDF8208069
:101760003A4631462846FFF7D7FA814601F090FC09
:1017700001F022FD0E4908604FF4487000F03CF87B
:1017800001F03AFD0B490860084600680A498842A2
:101790000AD1484601F05AFD42464946204601F02A
:1017A000E5FBC82000F028F801F0BCFDBDE8F0879B
:1017B0007C000020800000201840EF0010B502A03F
:1017C00004F04AF910BD00000D0A5761726E6E698F
:1017D0006E672121204465627567204D6F6E6974C4
:1017E0006F7220657863657074696F6E204F6363F4
:1017F000757265640D0A000001B50C490098086017
:101800004FF0E020006940F001004FF0E021086156
:1018100000BF064800680028FBD14FF0E0200069B7
:1018200020F001004FF0E021086108BD40000020D9
:1018300010B586B000242DA103C9CDE9040101F043
:10184000F3F904462BA004F007F936A004F004F9DC
:1018500040A004F001F99DF815009DF814109DF8C2
:101860001320CDE9002102909DF812309DF811203F
:101870009DF8101042A004F0EFF84FA004F0ECF82F
:10188000102159A004F0E8F8202162A004F0E4F847
:101890006D49204603F048F86B4800786B49C872E0
:1018A0006948007908736848007A48736648007B85
:1018B00088736548007CC8736348007DA0F5FA60B2
:1018C000087461480068604949685F4A9268CDE9D8
:1018D000002102905C48C368026941695C4804F0D9
:1018E000BBF85C48FFF788FF06B010BD3120160832
:1018F000310200000D0A2A2A2A2A2A2A2A2A2A2004
:10190000B1B1BEA9BABDCCECBFC6C8F0B5E7D7D35C
:10191000D3D0CFDEB9ABCBBE202A2A2A2A2A2A2A44
:101920002A2A00000D0A2A2A2A2A2A2A2A2A2A2AA8
:101930002A2A2A20C8BCC6F8D6C7C4DCBCE0B2E25A
:10194000D6D5B6CB202A2A2A2A2A2A2A2A2A2A2A7D
:10195000000000000D0A2A2A2A2A2A2A2A2A2A2ACC
:101960002A2A2A204249524D4D2D525455313030A9
:10197000202A2A2A2A2A2A2A2A2A2A2A0000000079
:101980000D0A2A2A2A2A2A2A2A2A2A2A2A2A2A20FE
:10199000C9E8B1B84944BAC5A3BA2578202578204A
:1019A00025782025782025782025782A2A2A2A2A91
:1019B0002A2A2A2A2A2A00000D0A2A2A2A2A2A2A18
:1019C0002A2A2A2A2A2A2A2A20D3B2BCFEC0E0D0F8
:1019D000CD3A20343333B0E6B1BE202A2A2A2A2A4F
:1019E0002A2A2A2A2A0000000D0A2A2A2A2A2A2A12
:1019F0002A2A2A2A2A2A2A2A20D3B2BCFEB0E6B1F1
:101A0000BEBAC53A202578202A2A2A2A2A2A2A2A32
:101A10002A2A2A000D0A2A2A2A2A2A2A2A2A2A2A8D
:101A20002A2A2A2A20C8EDBCFEB0E6B1BEBAC53AC1
:101A3000202578202A2A2A2A2A2A2A2A2A2A2A2AD1
:101A40002A2A0D0A0D0A00006C070020A0000020C1
:101A5000986B0008C0C62D002DE9FC5F05460E46B8
:101A60004FF0000AD146CB46002001900A2E03DD3C
:101A70002E4803F0F1FF56E0032E04DA2B484430E1
:101A800003F0EAFF4FE0D5F800A0D5F8009000245D
:101A900010E055F824105046FEF7BCFE01D255F870
:101AA00024A055F824104846FEF7BEFE01D255F892
:101AB0002490641CB442ECDB49465046FEF7DCFB44
:101AC0000090FEF74FFE07460022194BFEF772FE0C
:101AD00015D2012406E055F824105846FEF77AFB8B
:101AE0008346641C701EA042F5DCB01EFEF7C8FDE4
:101AF000074639465846FEF7FBFB019013E00024E9
:101B000006E055F824105846FEF764FB8346641C33
:101B1000B442F6DB3046FEF7B3FD07463946584679
:101B2000FEF7E6FB01900198BDE8FC9F146C0008ED
:101B3000000020402DE9F04306460F463546BC46DE
:101B4000002100248846002A01DB002B02DA002055
:101B5000BDE8F0839A4201DA0020F9E79A4212D1F7
:101B600012B90BB90020F3E7002108E0685C1CF80B
:101B70000190484501D00020EAE7481C01B291429B
:101B8000F4DB2846E4E70BB90020E1E7D01A401C5B
:101B90000FFA80F8002113E0002408E00819285CFF
:101BA0001CF80490484500D003E0601C04B29C423D
:101BB000F4DB00BF9C4201D16818C9E7481C01B2A0
:101BC0004145E9DB0020C3E708B50121084600F0E4
:101BD000B5FE01214FF4017000F0E0FE0220ADF8E7
:101BE000000000208DF803006946024800F004F868
:101BF00008BD0000000C01402DE9F041024600251F
:101C00000026002000230024002791F803C00CF0D8
:101C10000F0591F803C01CF0100F03D091F802C01B
:101C20004CEA050591F800C0BCF1000F31D01468F2
:101C300000202BE04FF0010C0CFA00F3B1F800C0CB
:101C40000CEA03069E4220D183004FF00F0C0CFAE1
:101C500003F7BC4305FA03FC4CEA040491F803C003
:101C6000BCF1280F06D14FF0010C0CFA00FCC2F8B1
:101C700014C00AE091F803C0BCF1480F05D14FF041
:101C8000010C0CFA00FCC2F810C0401C0828D1D38B
:101C90001460B1F800C0BCF1FF0F34DD54680020BF
:101CA0002EE000F1080C4FF0010808FA0CF3B1F82F
:101CB00000C00CEA03069E4221D183004FF00F0CB6
:101CC0000CFA03F7BC4305FA03FC4CEA040491F850
:101CD00003C0BCF1280F05D100F1080C08FA0CF87C
:101CE000C2F8148091F803C0BCF1480F07D100F18D
:101CF000080C4FF0010808FA0CF8C2F81080401CDC
:101D00000828CED35460BDE8F081024600209368D5
:101D10000B4201D0012000E0002070474161704774
:101D20000161704730B587B01EA30FCB03AC0FC461
:101D300020A103C9CDE90101002400250D2103A83C
:101D400004F052FD1D48FFF757FD1D48007801289B
:101D500004D1FFF763FB00201949087008234FF4F2
:101D6000967201A91748FFF7E5FE04467CB11648B4
:101D700084420CD2257A00244FF496711148FEF764
:101D80001EFA002011490880284607B030BD4FF4E4
:101D900096710C48FEF713FA00200C490880FF20CA
:101DA000F3E70000AFAF0000AF8016020000A50D02
:101DB0000A000000AFAF0000AF001602C0C62D0041
:101DC00030000020EC0B00200C0D0020440000200F
:101DD00030B587B01EA30FCB03AC0FC420A103C93D
:101DE000CDE90101002400250D2103A804F0FCFC2D
:101DF0001D48FFF701FD1D480078012804D1FFF7B9
:101E00000DFB00201949087008234FF4967201A9B0
:101E10001748FFF78FFE04467CB1164884420CD267
:101E2000257A00244FF496711148FEF7C8F9002076
:101E300011490880284607B030BD4FF496710C4810
:101E4000FEF7BDF900200C490880FF20F3E70000F1
:101E5000AFAF0000AF801A020000A90D0A00000019
:101E6000AFAF0000AF001A0240420F003000002068
:101E7000EC0B00200C0D00204400002030B587B092
:101E80001EA30FCB03AC0FC420A103C9CDE90101F0
:101E9000002400250D2103A804F0A6FC1D48FFF72F
:101EA000ABFC1D480078012804D1FFF7B7FA0020E9
:101EB0001949087008234FF4967201A91748FFF7D3
:101EC00039FE04467CB1164884420CD2257A00249F
:101ED0004FF496711148FEF772F9002011490880FD
:101EE000284607B030BD4FF496710C48FEF767F9ED
:101EF00000200C490880FF20F3E70000AFAF00008E
:101F0000AF801C020000AB0D0A000000AFAF000064
:101F1000AF001C02C0C62D0030000020EC0B0020DA
:101F20000C0D0020440000202DE9F04F87B030A3B5
:101F30000FCB03AC0FC432A003C8CDE901014FF0B1
:101F4000000AD346002000900E2103A804F04CFCA8
:101F50002D48FFF751FC2D480078012804D1FFF7E8
:101F60005DFA00202949087008234FF4967201A9F0
:101F70002748FFF7DFFD8246BAF1000F2DD0254834
:101F800082452AD29AF8080000049AF8091000EB5A
:101F900001209AF80A10084400900098FEF78FFB81
:101FA00080461D4A1D4BFEF78AFA064600221C4B4E
:101FB000FEF7F7FA0446FEF7BCFB1FFA80FB4FF072
:101FC000000A4FF496711248FEF7F9F800201549FF
:101FD0000880584607B0BDE8F08F4FF496710C4862
:101FE000FEF7EDF800200F4908804FF6FF70F1E78B
:101FF000AFAF0000AF800C030000009C0D0A000092
:10200000AFAF0000AF000C03C0C62D0030000020B1
:10201000EC0B0020090D002014AE47E17A844E40FD
:1020200080842E414400002030B587B01EA30FCB22
:1020300003AC0FC420A103C9CDE901010024002590
:102040000D2103A804F0D0FB1D48FFF7D5FB1D4868
:102050000078012804D1FFF7E1F900201949087040
:1020600008234FF4967201A91748FFF763FD044651
:102070007CB1164884420CD2257A00244FF4967124
:102080001148FEF79CF8002011490880284607B047
:1020900030BD4FF496710C48FEF791F800200C49C2
:1020A0000880FF20F3E70000AFAF0000AF80100210
:1020B00000009F0D0A000000AFAF0000AF0010024B
:1020C000C0C62D0030000020EC0B00200A0D0020BF
:1020D0004400002030B587B01EA30FCB03AC0FC463
:1020E00020A103C9CDE90101002400250D2103A889
:1020F00004F07AFB1D48FFF77FFB1D48007801289C
:1021000004D1FFF78BF900201949087008234FF418
:10211000967201A91748FFF70DFD04467CB11648D9
:1021200084420CD2257A00244FF496711148FEF7B0
:1021300046F8002011490880284607B030BD4FF40A
:1021400096710C48FEF73BF800200C490880FF20F0
:10215000F3E70000AFAF0000AF800E0200009D0D5E
:102160000A000000AFAF0000AF000E02C0C62D0095
:1021700030000020EC0B00200A0D0020440000205D
:1021800030B587B020A30FCB03AC0FC422A103C985
:10219000CDE90101002400250D2103A804F024FB52
:1021A0001F48FFF729FB1F480078012804D1FFF7DB
:1021B00035F900201B49087008234FF4967201A9D5
:1021C0001948FFF7B7FC04469CB11848844210D266
:1021D000617A207A01EB002085B200244FF49671D9
:1021E0001148FDF7ECFF002011490880284607B090
:1021F00030BD4FF496710C48FDF7E1FF00200C490B
:1022000008804FF6FF70F2E7AFAF0000AF80140216
:102210000000A30D0A000000AFAF0000AF001402E1
:10222000C0C62D0030000020EC0B00200C0D00205B
:102230004400002030B587B01EA30FCB03AC0FC401
:1022400020A103C9CDE90101002400250D2103A827
:1022500004F0CAFA1D48FFF7CFFA1D48007801289C
:1022600004D1FFF7DBF800201949087008234FF468
:10227000967201A91748FFF75DFC04467CB1164829
:1022800084420CD2257A00244FF496711148FDF750
:1022900096FF002011490880284607B030BD4FF452
:1022A00096710C48FDF78BFF00200C490880FF2039
:1022B000F3E70000AFAF0000AF8018020000A70DE9
:1022C0000A000000AFAF0000AF001802C0C62D002A
:1022D00030000020EC0B00200C0D002044000020FA
:1022E00070B500F0A1FC0546FDF748FFFDF73CFF87
:1022F0004FF47A7190FBF1F201FB1204204670BD9D
:10230000F0B58DB00446342221496846FDF73EFF02
:102310006069451E642195FBF1F12846EA1705EB3B
:102320009272C1EBA2014FF4C87295FBF2F28F18C2
:102330006069C11700EB91718910B0EB810112D176
:102340006422616991FBF2F302FB131131B992002F
:10235000616991FBF2F302FB131121B92169022992
:1023600001DD012600E0002640F26D1005FB007142
:102370002069401E5DF820000844E16808440644D6
:10238000072096FBF0F100FB1160A0610DB0F0BDDD
:10239000E06B000810B503E003A003F05DFB00E074
:1023A000FAE700BF10BD00000D0A5761726E6E693A
:1023B0006E6721212048617264204661756C74202B
:1023C0004F6363757265640D0A00000010B503E089
:1023D00003A003F041FB00E0FAE700BF10BD0000DE
:1023E0000D0A5761726E6E696E672121204D656D11
:1023F0004D616E616765204F6363757265640D0A98
:102400000000000010B502A003F026FB10BD000084
:102410000D0A5761726E6E696E672121204E4D491B
:10242000204F6363757265640D0A000070B500216A
:1024300000230F22C4780CB3164C246804F4E06423
:10244000C4F5E064210AC1F10403CA40447804FAE7
:1024500003F184781440214309010F4C0678A155FB
:10246000047804F01F050124AC4005786D114FF08D
:10247000E02606EB8505C5F8004109E0047804F084
:102480001F050124AC40054D0678761145F826401D
:1024900070BD00000CED00E000E400E080E100E031
:1024A00002490143024A1160704700000000FA052A
:1024B0000CED00E0014908627047000000000E4288
:1024C0000A48006840F004000849086008460068AF
:1024D00040F0020008600648006840F0040004492B
:1024E000086000BF00BF30BF7047000000700040B0
:1024F00010ED00E02DE9F04385B007460020039081
:10250000049080468146002500240026A2A207CA26
:102510008DE807003868039038798DF810009DF831
:102520000C809DF80D909DF80E50FFF729FE044693
:1025300020128DF80000E0B28DF801008DF80780C0
:102540008DF808909748FFF757F9B8F1000F73D14D
:10255000A9F10900132870D2DFE800F00A6F0B6FB1
:10256000326F506F706F716F9E6FBC6FDA6FF900D2
:102570000CE1022D23D19DF810009DF80F1000EB07
:10258000012084B202208DF8090020128DF80A0083
:10259000E0B28DF80B000C21684604F025F9824862
:1025A000FFF72AF90C21684604F01EF97F48FFF76F
:1025B00023F9204601F02EFBFFF7B6FC0446E5E0C8
:1025C000012D1AD19DF80F6001208DF809008DF8BA
:1025D0000A600B21684604F007F97348FFF70CF90D
:1025E0000B21684604F000F97048FFF705F9304602
:1025F00001F016FCFFF76EFD0646C7E0012D1AD16B
:102600009DF80F6001208DF809008DF80A600B21FC
:10261000684604F0E9F86448FFF7EEF80B216846D5
:1026200004F0E2F86148FFF7E7F8304601F088FB74
:10263000FFF7FAFC0646A9E0A9E0A6E0A6E0022D15
:1026400029D19DF810009DF80F1000EB012084B2F5
:1026500020128DF80000E0B28DF8010002208DF804
:10266000090020128DF80A00E0B28DF80B000C2151
:10267000684604F0B9F84C48FFF7BEF80C216846EC
:1026800004F0B2F84948FFF7B7F8204601F038FCEB
:10269000FFF776FD044679E0012D1AD19DF80F6011
:1026A00001208DF809008DF80A600B21684604F0BE
:1026B0009BF83D48FFF7A0F80B21684604F094F81A
:1026C0003A48FFF799F8304601F08EFCFFF72AFBF5
:1026D00006465BE0012D1AD19DF80F6001208DF8B0
:1026E00009008DF80A600B21684604F07DF82E4839
:1026F000FFF782F80B21684604F076F82B48FFF7C5
:102700007BF8304601F0E0FCFFF794FD06463DE023
:10271000012D1AD19DF80F6001208DF809008DF868
:102720000A600B21684604F05FF81F48FFF764F861
:102730000B21684604F058F81C48FFF75DF8304656
:1027400001F088F9FFF744FB06461FE0FFE7012D83
:102750001AD19DF80F6001208DF809008DF80A60EC
:102760000B21684604F040F80F48FFF745F80B21AD
:10277000684604F039F80D48FFF73EF8304601F09E
:10278000D9F9FFF77BFB064600E000BF00E000BF81
:1027900005B0BDE8F0830000AAAAAFFFAFEE00AA23
:1027A000AAAAAAAAC0C62D0080841E0040420F001B
:1027B0007047000010B502A003F04EF910BD0000F4
:1027C0000D0A5761726E6E696E6721212050656E29
:1027D0006453564320657863657074696F6E204F4B
:1027E0006363757265640D0A0000000010B54FF454
:1027F000C0725F217F2003F0D7F802F0C9FD02F01C
:1028000071FE02F017FF02F073FD02F0B5FE00F05A
:1028100032FA204800F0A2F901F00AFEFEF70AFAA7
:1028200080211D48FFF77CFA4FF480711A48FFF7AA
:1028300077FA00F0F9F9194908801948FEF7DCFF2A
:10284000FEF7F6FF1748007801280AD101F01EFDB7
:102850004FF47A7004F0B4F8FEF796FE00201149A8
:1028600008701148FEF700FB00F028F820210F48FF
:10287000FFF756FA0E48FEF7BFFF01210D48FFF79C
:102880004FFA0B48FEF7B8FF40210B4802F06DFFEE
:1028900010BD00006C070020000801403A00002035
:1028A00020A107002A000020A00000200010014005
:1028B000A0860100000C01400044004008B5012141
:1028C0001C2000F06BF88020ADF8000010208DF87F
:1028D000030069461048FFF78FF90120ADF80000AA
:1028E00010208DF8030069460B48FFF785F9012099
:1028F000ADF8000010208DF8030069460748FFF787
:102900007BF92020ADF8000010208DF80300694607
:102910000348FFF771F908BD00080140000C0140B1
:102920000010014001460020034A506820F4404056
:1029300008435060704700000010024029B1064A69
:1029400052690243044B5A6104E0034A52698243CC
:10295000014B5A61704700000010024029B1064A3D
:10296000D2690243044BDA6104E0034AD26982432C
:10297000014BDA61704700000010024029B1064A9D
:1029800012690243044B1A6104E0034A126982434C
:10299000014B1A61704700000010024029B1064A3D
:1029A00092690243044B9A6104E0034A92698243AC
:1029B000014B9A61704700000010024029B1064A9D
:1029C000D2680243044BDA6004E0034AD2688243CF
:1029D000014BDA60704700000010024001490860B6
:1029E00070470000400442420348406A40F0807053
:1029F00001494862704700000010024030B50021D4
:102A00000022002400232D4D6D6805F00C0121B13A
:102A1000042905D0082923D105E0294D056022E0CD
:102A2000274D05601FE0254D6D6805F47012234D9C
:102A30006D6805F48034022505EB92421CB9214DE6
:102A4000554305600BE01D4D6D6815F4003F03D044
:102A50001C4D5543056002E0194D5543056002E0E9
:102A6000174D056000BF00BF144D6D6805F0F00103
:102A70000909154D6B5C0568DD4045600F4D6D68BB
:102A800005F4E061090A104D6B5C4568DD40856026
:102A90000A4D6D6805F46051C90A0B4D6B5C4568C1
:102AA000DD40C560054D6D6805F44041890B074D5B
:102AB0006B5CC568B5FBF3F5056130BD00100240E5
:102AC00000127A0000093D001400002024000020BC
:102AD00010B501460022002300204A11012A02D12C
:102AE000094C236806E0022A02D1074C236A01E060
:102AF000054C636A01F01F02012494401C4201D07E
:102B0000012000E0002010BD0010024000210A4A10
:102B100011700A4A82F82010012802D0042808D136
:102B200003E00121044A117004E00521024A1170FA
:102B300000E000BF00BF70472010024000100240BC
:102B400001490860704700003C0442420249096A9A
:102B50000143014A116270470010024010B504465B
:102B60000420FEF71DF9A0F52541A53907D000F096
:102B700021F84AF2A5510420FEF726F90CE07B204B
:102B8000FFF7A6FF18B101200549087002E07A207E
:102B9000FFF79EFF00F0BAF8FFF726FF10BD000018
:102BA0002A000020024909888143014A11807047A8
:102BB0000428004010B501214FF0C050FFF7CEFEB1
:102BC0000120FFF777FCFEF7E3F80120FFF79EFFF7
:102BD00000BF4120FFF77CFF0028FAD04FF480703F
:102BE000FFF7B4FF0120FFF7ABFF00F08FF800F014
:102BF00083F847F6FF7000F06FF800F07DF810BD25
:102C00000348008840F01000014908807047000028
:102C100004280040034800884FF6EF71084001493E
:102C20000880704704280040002103480188001FE5
:102C3000008841EA004070471C28004001460020FF
:102C4000064A12880A40D0B2044A121F12880A4269
:102C500002D008B1012000E00020704704280040A5
:102C600010B50120FFF7EAFF20B10120FFF79AFF1E
:102C700000F042F810BD08B54FF4A060FFF710FC5B
:102C800003208DF8000002208DF801008DF802006D
:102C900001208DF803006846FFF7C8FB08BD00005F
:102CA00000B50246FFF7ACFF100C03490880091D70
:102CB0000A80FFF7AFFF00BD2028004000B50246A4
:102CC000FFF79EFF100C03490880091D0A80FFF7DB
:102CD000A1FF00BD1828004000B50246FFF790FF95
:102CE000C2F3034003490880091D0A80FFF792FFE1
:102CF00000BD00000828004000BF0348008810F015
:102D0000200FFAD0704700000428004006480088D1
:102D10004FF6F77108400449088000BF0248008858
:102D200010F0080FFAD07047042800402DE9F14F49
:102D300084B00498FDF7ADFC4FF08B410190FDF796
:102D4000D7FA8346FDF70EFD06464FF06632234B59
:102D5000FDF7B5FB8146FDF741FD0390204903983F
:102D6000FDF790FA054600212846FDF753FD01D2F4
:102D7000002509E02846FDF7F5FC06460022194B20
:102D8000FDF718FD00D2184D2846FDF7A5FC0446B6
:102D90002046FDF775FC06462946FDF770FA0290BD
:102DA00012490298FDF76EFA02900298FDF794FC22
:102DB0000646FDF765FC80460D494046FDF72AFDB5
:102DC00004D22046FDF75CFC054603E0601CFDF7DD
:102DD00057FC0546284605B0BDE8F08F66660A40F8
:102DE00000002042000059400000C842000020417D
:102DF0000000A0402DE9FE4305460E46002002904B
:102E000000241FA0006801901EA000680090002709
:102E1000A046A14604234FF4967269461A48FEF76D
:102E200089FE0446ACB11948844212D218A002F0BF
:102E300013FE207918B9601DFFF75CFB05E02079CF
:102E4000012802D16079FFF7B3FC00240020BDE81F
:102E5000FE8302234FF4967201A90B48FEF76AFE27
:102E600004465CB10948844208D233462A4602A986
:102E7000204601F06FFDBDF80800E8E70020E6E716
:102E8000A3200000A3A3A3A3EC0B00200E0D0020A1
:102E90000D0A526563656976652034333320436FCC
:102EA0006E66696720436F6D6D616E642066726F38
:102EB0006D20537276696573210D0A00014601F099
:102EC0000100002207E04306180E491001F001033B
:102ED0001843531CDAB2072AF5DB7047014601F0AC
:102EE0000100002209E04FF6FF7303EA4000491099
:102EF00001F001031843531CDAB20F2AF3DB7047C9
:102F000021B1028842F04002028004E002884FF6BC
:102F1000BF731A400280704770B505460C461646CE
:102F20004FF480511048FEF7F9FE032000F0B2F98B
:102F3000C4F3074000F0AEF9C4F3072000F0AAF98B
:102F4000E0B200F0A7F904E0FF2000F0A3F9287038
:102F50006D1C3000A6F101018EB2F5D14FF4805105
:102F60000148FEF7DDFE70BD000C01402DE9F05F69
:102F700007460E4614464FF00008C146C2460025DB
:102F8000AB4606F0FF0ACAF10000C5B22046E117C1
:102F900004EB1161C1F30728E11704EB1161091279
:102FA000A4EB012101F0FF09BAF1000F20D1B8F123
:102FB000000F05D122463146384600F0CBF864E0D8
:102FC00009E04FF480723146384600F0C3F806F548
:102FD000807607F580775FEA0800A8F1010101F02B
:102FE000FF08EED14A463146384600F0B3F84CE0CF
:102FF000B8F1000F18D1A94510DDA9EB050000F0CC
:10300000FF0B2A463146384600F0A4F82E442F44E0
:103010005A463146384600F09DF836E022463146A1
:10302000384600F097F830E0601B84B22046E11784
:1030300004EB1161C1F30728E11704EB11610912D8
:10304000A4EB012101F0FF092A463146384600F081
:1030500081F82E442F4409E04FF4807231463846FF
:1030600000F078F806F5807607F580775FEA0800CB
:10307000A8F1010101F0FF08EED1B9F1000F04D071
:103080004A463146384600F065F8BDE8F09F00003A
:1030900000B587B001210820FFF780FC01218803DB
:1030A000FFF75CFC4FF40050ADF8040003208DF8EE
:1030B000060018208DF8070001A92448FEF79CFDA2
:1030C0004FF48040ADF8040001A92048FEF794FDBC
:1030D0004FF40040ADF8040001A91C48FEF78CFD38
:1030E0004FF48050ADF8040010208DF8070001A9BE
:1030F0001648FEF781FD4FF480511448FEF710FE8C
:103100000020ADF808004FF48270ADF80A000020EE
:10311000ADF80C000220ADF80E000120ADF8100053
:103120004002ADF812000820ADF814000020ADF800
:1031300016000720ADF8180002A9054800F012F9A2
:1031400001210348FFF7DCFE07B000BD000C014081
:103150000038004070B505460C46164600F0D0F821
:103160004FF480511348FEF7D9FD022000F092F889
:10317000C4F3074000F08EF8C4F3072000F08AF88B
:10318000E0B200F087F8B6F5807F01DD4FF480767D
:1031900003E0287800F07EF86D1C3000A6F10101F4
:1031A0008EB2F6D14FF480510248FEF7B9FD00F01F
:1031B0008DF870BD000C014010B500244FF4805113
:1031C0000C48FEF7ABFDAB2000F064F8FF2000F0E8
:1031D00061F8FF2000F05EF8FF2000F05BF8FF20B0
:1031E00000F058F804464FF480510248FEF798FD6D
:1031F000204610BD000C01402DE9F04100240025BF
:10320000002600274FF480510F48FEF787FD9F20CE
:1032100000F040F8FF2000F03DF80546FF2000F0E8
:1032200039F80646FF2000F035F807464FF4805184
:103230000548FEF775FD280440EA062040EA070429
:103240002046BDE8F0810000000C014010B50446A6
:1032500000F056F800F03AF84FF480510C48FEF7B1
:103260005DFD202000F016F8C4F3074000F012F8CE
:10327000C4F3072000F00EF8E0B200F00BF84FF4B2
:1032800080510348FEF74CFD00F020F810BD00000F
:10329000000C014010B5044600BF02210A4800F0AE
:1032A00053F80028F9D02146074800F059F800BF2C
:1032B0000121054800F048F80028F9D0024800F044
:1032C0004CF8C0B210BD00000038004010B500241A
:1032D0004FF480510948FEF721FD0520FFF7DAFF82
:1032E00000BFFF20FFF7D6FF044614F0010FF8D10E
:1032F0004FF480510148FEF713FD10BD000C014052
:1033000010B54FF480510648FEF708FD0620FFF780
:10331000C1FF4FF480510248FEF702FD10BD0000CE
:10332000000C014010B54FF480510648FEF7F6FC42
:10333000B920FFF7AFFF4FF480510248FEF7F0FCD1
:1033400010BD0000000C01400246002013890B4212
:1033500001D0012000E000207047014688897047B5
:103360008181704710B50022028802F441520B8817
:103370004C8823438C882343CC8823430C892343E4
:103380004C8923438C892343CC8923431A430280ED
:10339000838B4FF2FF74234083830B8A038210BD1B
:1033A00010B502A002F058FB10BD00000D0A5761D5
:1033B000726E6E696E67212120535643616C6C20DA
:1033C000657863657074696F6E204F6363757265AD
:1033D000640D0A002DE9FF4FADF5577D83461D466C
:1033E000DDF890930420D6900520D5900120D4904C
:1033F00011A81090D8980F9000200E900D900120E9
:103400000B904FF0000A0024002600200A9005903F
:10341000102004900C20039006200290002700202A
:10342000019099F8051099F8040001EB002080B292
:103430000C9010980E9040F20B310E98FCF7BFFEE6
:10344000A3208DF8440020208DF8450000BF05E042
:1034500019F8041012A80155601CC4B2062CF7DB41
:10346000D4988DF84E000C9803F047FAADF84F0051
:10347000802000EB0B20001D80B2ADF85100BDF89C
:10348000510003F03AFAADF8510001208DF85300D5
:103490000F98D0B1D9980A90002412E004EB4402AE
:1034A00002EB0413D89A02EB430104EB440202EB53
:1034B000041315AA02EB43002622FCF767FE601CEA
:1034C000C4B20A988442E9DBB4E0ABF102000A28F6
:1034D0007DD2DFE800F005AB06AB93AB9FABAB94BE
:1034E000A7E0A34803F0FCF91590012111A88182FF
:1034F000A048017A11A881759F4803F0F1F9CDF831
:103500007A00032111A841879C48007DA0F5FA604C
:10351000C1B28DF880109948017C8DF88110017B33
:103520008DF8821000245FE0072006AB0022611CAA
:1035300000900120FEF7DCF89DF819109DF81800A6
:1035400001EB002080B208908A480188089800EBBF
:10355000C121D598C03001EB0061A01C00EB4002F6
:1035600002EB001215A800EB42000160A11C01EB68
:10357000410202EB011215A901EB4201086803F0B8
:10358000AFF9A11C01EB410202EB011215A901EBFD
:10359000420108600421A01C00EB400202EB001273
:1035A00015A800EB4200818000260EE0B01C06A9A1
:1035B000095CA01C00EB400202EB001215A800EB16
:1035C0004200801D8155701CC6B2A01C00E02DE099
:1035D00000EB400101EB001115A800EB41008088D1
:1035E000B042E3DC601CC4B26548007884429BDBD7
:1035F00063480078801CC0B20A901AE019E0614864
:1036000003F06EF91590012111A8818281750120C6
:103610000A900EE05648E03003F062F9159001215F
:1036200011A88182817501200A9002E000200A9091
:1036300000BF00BF00240FE004EB440000EB0411C6
:1036400015A800EB41000079801DC7B205983844E9
:10365000C0B20590601CC4B20A988442ECDB0598A5
:103660000C30ADF84600BDF8460003F046F9ADF861
:103670004600102228460E99FCF788FD4FF6FF7091
:10368000ADF84C030598103000F0FF0810200190B1
:1036900000242FE004EB440000EB041115A800EB1C
:1036A00041000E9004EB440000EB041115A800EB60
:1036B00041000079801DC7B204EB440101EB041204
:1036C00015A901EB4201888803F017F904EB4401C6
:1036D00001EB041215A901EB4201888001996818D9
:1036E0003A460E99FCF752FD01983844C0B2019059
:1036F000601CC4B20A988442CCDB41462846FDF7E0
:103700008BFB8246ADF84CA308F1010005F800A040
:103710004FEA2A21401C29541648C079002803DDAD
:103720001448C0790B9001E001200B90002416E0B2
:103730004A4608F1020128460C9B00F027F80D903C
:103740000D9800B10EE0FEF7CBFD09900E4A022362
:10375000099903FB0120FEF74FF8601CC4B20B98D7
:103760008442E5DB00BF0DF55B7DBDE8F08F000016
:1037700020000060A0000020500000106C07002016
:103780003100002000020060C0C62D002DE9F0438A
:1037900085B006460C461746984614216846FCF745
:1037A0000EFD4FF000090025FF2C00DDFF24002551
:1037B00004E0715D10A002F04FF96D1CA542F8DB2A
:1037C0000EA002F049F92146304603F059F80D48A1
:1037D000FEF712F80C480078012805D1414638461A
:1037E000FDF796FE814602E00648FEF705F84846DA
:1037F00005B0BDE8F0830000257820000D0A200DFB
:103800000A000000404B4C00300000202DE9F04F32
:1038100097B004460E4691464FF0000B00201590DD
:1038200016900025FFF700FA7449088008460088C2
:1038300073490988401A1FFA80FABAF1B40F08DAFE
:10384000CAF1B4014FF47A72514301FB02F0FDF763
:10385000D3FF002516E06B480088FFF767FA0BA935
:1038600041F8250051F82500FCF77CFF07463A4651
:103870000B46294664A002F0EFF86B48FDF7BCFF49
:10388000681CC5B20A2DE6DB0A210BA8FEF7E4F896
:10389000C4F802006548007B6449497BC1EB011113
:1038A00000EB8100208062480078401CA0716148D4
:1038B000FDF7A2FFA0795E490870084600785E49CE
:1038C00081F84400012001F1440300220921009005
:1038D0001046FDF73DFF208800128DF85400207837
:1038E0008DF85500002506E0A01C415DA81C15AA16
:1038F0001154681CC5B2042DF6DBA0798DF85A006E
:1039000007200090A17915AB00220120FDF720FFD0
:103910004FF480714948FEF701FA444AD16BD4F85C
:103920000200FCF781FF06D9404A916BD4F80200EF
:10393000FCF77AFF31D820883C49098800EBC12088
:10394000A0F16C500190019802F0CAFF0190042090
:10395000ADF80800002506E0A01C415D0DF10A004D
:103960004155681CC5B2BDF80800A842F4DC344BD0
:10397000012201A904200096FFF72CFD494630469C
:10398000FDF7C6FD2F49087008460078012801D1CF
:103990000020087001202C490870254800782B4928
:1039A0000978884204DA2149088802F0BFFD22E044
:1039B0001F4800782549097888421CD12448FDF722
:1039C0001BFFFDF719FE194908721D4B0022114615
:1039D00004200096FFF7FEFC49463046FDF798FDAF
:1039E0001849087008460078012801D100200870A5
:1039F00001201549087017B0BDE8F08F3C00002089
:103A00003A000020960000200D0A4E4F3A2564200F
:103A10002073656E736F725F636F6C6C6563743A6D
:103A20002025302E3266000040420F00A00000200A
:103A30003100002020A10700E00000200008014024
:103A40003E0600202B0000202C0000202D0000202E
:103A5000A08601002DE9FF41074627A30FCB8DE883
:103A60000F000025002400268DF8087000BF05E037
:103A70001DF80400284485B2601CC4B20A2CF7DB90
:103A80002846E91705EB11610912A5EB0121C9B21E
:103A90008DF80A100D21684602F0A6FE002425E0EC
:103AA0001948FDF7A9FE1948007801281CD1FDF737
:103AB000B5FC86B2002E13DD314615A001F0CCFF17
:103AC000002406E01748015D17A001F0C5FF601C47
:103AD000C4B2B442F6DB4FF4FA711548FCF76FFB41
:103AE00000200A49087003E0601CC4B20A2CD7DB2E
:103AF00000BFBDE8FF810000AFAF0000AF8019023A
:103B0000FF00FF0D0A000000400D03003000002000
:103B10000D0A446174614C656E6774683A25640DE2
:103B20000A000000EC0B002020252E327820000037
:103B3000E80900202DE9FF41074627A30FCB8DE8B8
:103B40000F000025002400268DF8087000BF05E056
:103B50001DF80400284485B2601CC4B20A2CF7DBAF
:103B60002846E91705EB11610912A5EB0121C9B23D
:103B70008DF80A100D21684602F036FE002425E07B
:103B80001948FDF739FE1948007801281CD1FDF7C6
:103B900045FC86B2002E13DD314615A001F05CFF16
:103BA000002406E01748015D17A001F055FF601CD6
:103BB000C4B2B442F6DB4FF4FA711548FCF7FFFAD1
:103BC00000200A49087003E0601CC4B20A2CD7DB4D
:103BD00000BFBDE8FF810000AFAF0000AF801B0257
:103BE000FF00FF0D0A000000400D03003000002020
:103BF0000D0A446174614C656E6774683A25640D02
:103C00000A000000EC0B002020252E327820000056
:103C1000E80900202DE9F04786B0824636A3D3E9B3
:103C200001021968DB6803AC0DC40291002500BFD6
:103C3000002600BF34490AFB01F0FCF72FFD0746C0
:103C4000324A334BFCF7ADFCCDE90001FCF771FDC6
:103C500081464FEA19408DF810004FEA19208DF87F
:103C6000110009F0FF008DF81200002405E002A801
:103C7000005D284485B2601CC4B20B2CF7DB2846DB
:103C8000E91705EB11610912A5EB0121C9B28DF805
:103C900013100E2102A802F0A7FD002425E01D4804
:103CA000FDF7AAFD1C48007801281CD1FDF7B6FBE2
:103CB00086B2002E13DD314618A001F0CDFE00249F
:103CC00006E01B48015D1BA001F0C6FE601CC4B2EB
:103CD000B442F6DB4FF4FA711848FCF770FA002092
:103CE0000D49087003E0601CC4B20A2CD7DB00BF8A
:103CF00006B0BDE8F0870000AFAF0000AF800B0357
:103D0000FFFFFFFF0D0A000040420F0014AE47E125
:103D10007A844E40400D0300300000200D0A4461BB
:103D200074614C656E6774683A25640D0A00000082
:103D3000EC0B002020252E3278200000E80900201E
:103D40002DE9FF41074627A30FCB8DE80F00002583
:103D5000002400268DF8087000BF05E01DF804005F
:103D6000284485B2601CC4B20A2CF7DB2846E91748
:103D700005EB11610912A5EB0121C9B28DF80A10FA
:103D80000D21684602F030FD002425E01948FDF7BA
:103D900033FD1948007801281CD1FDF73FFB86B29E
:103DA000002E13DD314615A001F056FE002406E07A
:103DB0001748015D17A001F04FFE601CC4B2B44269
:103DC000F6DB4FF4FA711548FCF7F9F900200A49BF
:103DD000087003E0601CC4B20A2CD7DB00BFBDE84A
:103DE000FF810000AFAF0000AF800F02FF00FF0DAA
:103DF0000A000000400D0300300000200D0A44615D
:103E000074614C656E6774683A25640D0A000000A1
:103E1000EC0B002020252E3278200000E80900203D
:103E20002DE9FF41074627A30FCB8DE80F000025A2
:103E3000002400268DF8087000BF05E01DF804007E
:103E4000284485B2601CC4B20A2CF7DB2846E91767
:103E500005EB11610912A5EB0121C9B28DF80A1019
:103E60000D21684602F0C0FC002425E01948FDF74A
:103E7000C3FC1948007801281CD1FDF7CFFA86B29F
:103E8000002E13DD314615A001F0E6FD002406E00A
:103E90001748015D17A001F0DFFD601CC4B2B442F9
:103EA000F6DB4FF4FA711548FCF789F900200A494E
:103EB000087003E0601CC4B20A2CD7DB00BFBDE869
:103EC000FF810000AFAF0000AF800D02FF00FF0DCB
:103ED0000A000000400D0300300000200D0A44617C
:103EE00074614C656E6774683A25640D0A000000C1
:103EF000EC0B002020252E3278200000E80900205D
:103F00002DE9FF41064629A30FCB8DE80F000025C0
:103F10000024002730128DF80800F0B28DF8090057
:103F200000BF05E01DF80400284485B2601CC4B23F
:103F30000A2CF7DB2846E91705EB11610912A5EBFE
:103F40000121C9B28DF80A100D21684602F04CFC1F
:103F5000002425E01948FDF74FFC19480078012896
:103F60001CD1FDF75BFA87B2002F13DD394615A08F
:103F700001F072FD002406E01748015D17A001F072
:103F80006BFD601CC4B2BC42F6DB4FF4FA711548FD
:103F9000FCF715F900200A49087003E0601CC4B260
:103FA0000A2CD7DB00BFBDE8FF810000AFAF0000E7
:103FB000AF801302FFFFFF0D0A000000400D030059
:103FC000300000200D0A446174614C656E677468AE
:103FD0003A25640D0A000000EC0B002020252E324B
:103FE00078200000E80900202DE9FF41074627A3BB
:103FF0000FCB8DE80F000025002400268DF80870F7
:1040000000BF05E01DF80400284485B2601CC4B25E
:104010000A2CF7DB2846E91705EB11610912A5EB1D
:104020000121C9B28DF80A100D21684602F0DCFBAF
:10403000002425E01948FDF7DFFB19480078012826
:104040001CD1FDF7EBF986B2002E13DD314615A029
:1040500001F002FD002406E01748015D17A001F001
:10406000FBFC601CC4B2B442F6DB4FF4FA71154895
:10407000FCF7A5F800200A49087003E0601CC4B2F0
:104080000A2CD7DB00BFBDE8FF810000AFAF000006
:10409000AF801502FF00FF0D0A000000400D030075
:1040A000300000200D0A446174614C656E677468CD
:1040B0003A25640D0A000000EC0B002020252E326A
:1040C00078200000E80900202DE9FF41074627A3DA
:1040D0000FCB8DE80F000025002400268DF8087016
:1040E00000BF05E01DF80400284485B2601CC4B27E
:1040F0000A2CF7DB2846E91705EB11610912A5EB3D
:104100000121C9B28DF80A100D21684602F06CFB3E
:10411000002425E01948FDF76FFB194800780128B5
:104120001CD1FDF77BF986B2002E13DD314615A0B8
:1041300001F092FC002406E01748015D17A001F091
:104140008BFC601CC4B2B442F6DB4FF4FA71154824
:10415000FCF735F800200A49087003E0601CC4B27F
:104160000A2CD7DB00BFBDE8FF810000AFAF000025
:10417000AF801702FF00FF0D0A000000400D030092
:10418000300000200D0A446174614C656E677468EC
:104190003A25640D0A000000EC0B002020252E3289
:1041A00078200000E809002010B500F001F810BDEB
:1041B0000CB50020019000903248006840F4803037
:1041C0003049086000BF2F48006800F400300090BC
:1041D0000198401C0190009818B90198B0F5A06FA3
:1041E000F1D12848006810F4003F02D0012000906F
:1041F00001E0002000900098012842D12248006888
:1042000040F01000204908600846006820F00300D4
:1042100008600846006840F00200086019484068DD
:10422000184948600846406848600846406840F4BD
:10423000806048600846406820F47C10486008466A
:10424000406840F4E81048600846006840F080701C
:10425000086000BF0B48006810F0007FFAD00948E2
:10426000406820F00300074948600846406840F075
:104270000200486000BF0348406800F00C000828B6
:10428000F9D10CBD001002400020024010B5002101
:10429000602002F05BFC602002F04FF802216120F8
:1042A00002F054FC612002F048F832210F2002F0A5
:1042B0004DFC0F2002F041F81C21142002F046FCB6
:1042C000142002F03AF8ED21622002F03FFC622057
:1042D00002F033F88021632002F038FC632002F002
:1042E0002CF8B821642002F031FC642002F025F89B
:1042F0001421652002F02AFC652002F01EF89C21A2
:10430000662002F023FC662002F017F808216720DF
:1043100002F01CFC672002F010F83221692002F044
:1043200015FC692002F009F81F216A2002F00EFC3A
:104330006A2002F002F840216B2002F007FC6B209B
:1043400001F0FBFF0621682002F000FC682001F06C
:10435000F4FF0F216C2002F0F9FB6C2001F0EDFF5F
:104360001C216D2002F0F2FB6D2001F0E6FF2621FA
:104370006E2002F0EBFB6E2001F0DFFF27216F20A3
:1043800002F0E4FB6F2001F0D8FF0721702002F05B
:10439000DDFB702001F0D1FF1021712002F0D6FB6F
:1043A000712001F0CAFF1E21722002F0CFFB7220A3
:1043B00001F0C3FF1221732002F0C8FB732001F04B
:1043C000BCFF0221742002F0C1FB742001F0B5FF94
:1043D0000521752002F0BAFB752001F0AEFF052122
:1043E000762002F0B3FB762001F0A7FF0A217720A8
:1043F00002F0ACFB772001F0A0FF0421782002F04E
:10440000A5FB782001F099FF0821792002F09EFB9E
:10441000792001F092FF00217A2002F097FB7A20A8
:1044200001F08BFF10BD10B500F088FA10BD000040
:1044300030B51A4800681A4AB0FBF2F1B1F1807F3A
:1044400001D301201DE021F07F40401E4FF0E0220B
:10445000506150170F22002807DA13071D0E114B69
:1044600000F00F04241F1D5503E013071C0E0E4B14
:104470001C5400BF00204FF0E02290610720106123
:10448000002008B100BFFEE74FF0E020006920F0F7
:1044900001004FF0E021086130BD00000000002065
:1044A00040420F0018ED00E000E400E010B51348B2
:1044B000006840F001001149086008464068104952
:1044C00008400E494860084600680E4908400B49FC
:1044D00008600846006820F48020086008464068AC
:1044E00020F4FE0048604FF41F008860FFF75CFE78
:1044F0004FF000600449086010BD00000010024049
:104500000000FFF8FFFFF6FE08ED00E010B5012106
:104510000F4800F029F9C8B101210D4800F020F83A
:10452000002201210A4800F030F90021084800F07B
:104530001AF8074800F024F80120064908700648D8
:1045400000780649087000200349087010BD00007B
:10455000000400408B000020890000208D00002016
:10456000CA430282704721B1028842F001020280F0
:1045700004E002884FF6FE731A4002807047000084
:1045800010B504466848844208D10121C014FEF7E2
:1045900015FA0021E014FEF711FAC4E0B4F1804FDF
:1045A00008D101210846FEF7E9F900210120FEF7B4
:1045B000E5F9B8E05D48844208D101210220FEF708
:1045C000DDF900210220FEF7D9F9ACE05848844219
:1045D00008D101210420FEF7D1F900210420FEF7C3
:1045E000CDF9A0E05348844208D101210820FEF70C
:1045F000C5F900210820FEF7C1F994E04E48844235
:1046000008D101211020FEF7B9F900211020FEF792
:10461000B5F988E04948844208D101212020FEF7FD
:10462000ADF900212020FEF7A9F97CE0444884423E
:1046300008D101214014FEF7C1F900216014FEF7F2
:10464000BDF970E03F48844209D10121C804FEF75A
:10465000B5F900214FF40020FEF7B0F963E03A48C5
:10466000844209D101210805FEF7A8F900214FF481
:104670008010FEF7A3F956E03448844209D10121A5
:104680004805FEF79BF900214FF40010FEF796F95C
:1046900049E02F48844208D101214020FEF76EF9FD
:1046A00000214020FEF76AF93DE02A48844208D103
:1046B00001218020FEF762F900218020FEF75EF9DB
:1046C00031E02548844208D101218015FEF756F9D2
:1046D0000021A015FEF752F925E02048844209D1B7
:1046E00001210804FEF76AF900214FF48030FEF73B
:1046F00065F918E01A48844209D101214804FEF7FF
:104700005DF900214FF40030FEF758F90BE0154831
:10471000844208D101218804FEF750F900214FF4AA
:104720008020FEF74BF910BD002C01400004004032
:1047300000080040000C0040001000400014004041
:1047400000340140004C0140005001400054014041
:1047500000180040001C00400020004000400140C4
:10476000004401400048014030B5024600200023CB
:104770000024158A05EA0103958905EA010413B1AD
:104780000CB1012000E0002030BD1AB183890B4339
:10479000838102E083898B438381704730B5C7B042
:1047A00004463C48CDF806007820ADF80400BDF87A
:1047B00004003949098800EBC120A0F16C503D90FC
:1047C0003D9802F08DF83D900420ADF8F8000025EA
:1047D00005E00DF10600415DF43041556D1CBDF85A
:1047E000F800A842F5DC2D4B01223DA904200094DD
:1047F000FEF7F0FD2A48FCF7FFFF2A48039000204F
:10480000ADF810002748B530CDF832000021ADF8E2
:104810003610244812301690ADF85C101F4B03225E
:1048200003A902200094FEF7D5FD1D48FCF7E4FF24
:104830001C4820900320ADF8840010208DF88600DD
:104840000C2120A8C1710E2101721648B530CDF897
:10485000A600022120A8418500218DF8AC103C2142
:104860008DF8AD100F48123033900221ADF8D01002
:1048700000218DF8D2100A218DF8D310074B0322A6
:1048800020A902200094FEF7A5FD0548FCF7B4FF1F
:1048900047B030BD0000F041A00000203E060020DF
:1048A00080841E005000001030B587B00446FEF72B
:1048B00081F914A001F0D0F8FEF71EFA207C00F573
:1048C000FA600590E07B0490A07B0390607B0290EF
:1048D000207B0190E07A00906846FDF711FD684664
:1048E00001F042FF0546FEF7E9F9FEF705FA4AF244
:1048F000A5510420FCF768FAFEF7FEF9FEF774F8FC
:1049000007B030BD0D0A52544320636F6E6669676D
:1049100075726564206279205365727665722E2EF9
:104920002E2E0D0A0000000070B504460D4604F559
:10493000E1462946304602F075F870BD044800682B
:1049400020B103480068401E01490860704700001C
:10495000400000202DE9FF4FADF5637D804689467C
:1049600093460027BA4600240020E1900025002647
:10497000E09098F80E1098F80D0001EB00201FFA57
:1049800080FA40F60401AAEB01008A457ED00ADCD9
:10499000BAF5017F0ED0AAF5806004387DD0B0F55D
:1049A000007F75D1F6E3B0F5007F72D0B0F5407F9F
:1049B000F7D1F0E3A9F800A098F8031098F80200E6
:1049C00001EB00200C38C7B23846F91707EB91719C
:1049D00089108DF87E139DF87E0300284CDD9DF82C
:1049E0007E03142848DC08F11000E0909DF87E0357
:1049F000E190E1980890002431E0E0980168CBA8AC
:104A000040F82410CBA951F8240001F069FFCBA98C
:104A100041F82400CBA850F8240004EB440101EB3A
:104A2000041109AA02EB41010860002004EB4401D3
:104A300001EB041102EB41018880CBA850F824104F
:104A4000FEA001F009F8E198401EC0B2E190E198A3
:104A500000B908E0E098001DE090601CC4B29DF829
:104A60007E03A042C9DC00BFCBA850F82430214609
:104A7000F8A0E19A00F0F0FF0020FD490870FD4B1E
:104A8000CDF800B009A90220089A03E096E304E0FB
:104A9000ADE396E3FEF79EFCAAE3A9F800A098F820
:104AA000031098F8020001EB00200C38C7B2062F63
:104AB00076DD08F11000E090002460E3E0990868DA
:104AC00001F00EFF01460790DCA000F0C5FFE09E5C
:104AD000E09E306801F004FFE74A811A904278D0E6
:104AE0000ADCA0F180500A3874D0392873D03A28F3
:104AF00072D0472871D106E0A2296FD0A3296FD0C8
:104B0000A429F7D1C5E0B079DC490874F079C873FD
:104B1000307A8873707A4873B07A0873F07AC87202
:104B20000846C07A097BD54A527BCDE90021029024
:104B3000D248837BC27B017CD1A000F08DFFCF489F
:104B4000C07B0C2812DCCD48807B1F280EDCCB48B4
:104B5000407B17280ADCC948007B3C2806DCC74894
:104B6000C07A3C2802DCC548FFF79EFEC2491139D5
:104B7000CBA840F82410084601F0B2FE04EB440133
:104B800001EB041109AA02EB41010860062004EBC5
:104B9000440101EB041102EB4101888000250DE086
:104BA000F0E2A81D315C04EB440000EB041009AAFC
:104BB00002EB4000801D4155681CC5B2062DF0DB9C
:104BC00006F10C00E090A7F10C00C7B2601CC4B263
:104BD000D4E29BE00DE2F2E057E2CAE2C3E1FFE774
:104BE000F179B07901EB0020A4490880B079B1498E
:104BF00081F83E00F179AF4880F83F109F48018866
:104C0000ADA000F029FF9D480088002801DD0120AB
:104C100000E000203C280ADCAF48FCF7EDFD022153
:104C2000A4483E3000F073FEAB48FCF7E5FD924926
:104C3000A331CBA840F82410084601F051FE04EB44
:104C4000440101EB041109AA02EB410108600220B2
:104C500004EB440101EB041102EB410188800025C3
:104C60000CE0A81D315C04EB440000EB041009AA21
:104C700002EB4000801D4155681CC5B2022DF0DBDF
:104C800006F10800E090A7F10800C7B2601CC4B2AA
:104C900074E2F179B07901EB002078498871084617
:104CA00081798EA000F0D8FE7349A431CBA840F8DA
:104CB0002410084601F014FE04EB440101EB04113A
:104CC00009AA02EB41010860022004EB440101EB58
:104CD000041102EB4101888000250CE0A81D315C25
:104CE00004EB440000EB041009AA02EB4000801D15
:104CF0004155681CC5B2022DF0DB06F10800E090BA
:104D0000A7F10800C7B2601CC4B237E2F179B079EC
:104D100001EB002059494880B079664981F840008C
:104D2000F179644880F8411054484088002801DD3A
:104D3000012000E00020B0F5B46F0ADC6648FCF703
:104D40005BFD03215B48403000F0E1FD6248FCF769
:104D500053FD4A48418868A000F07EFE4649CBA832
:104D600040F82410084601F0BBFD04EB440101EBC0
:104D7000041109AA02EB41010860022004EB44017E
:104D800001EB041102EB4101888000250CE0A81D15
:104D9000315C04EB440000EB041009AA02EB400074
:104DA000801D4155681CC5B2022DF0DB06F10800DC
:104DB000E090A7F10800C7B2601CC4B2DEE1002594
:104DC00006E0A81D315C2D4838304155681CC5B23D
:104DD000042DF6DB2949886BFBF7C4FC00224D4B00
:104DE000CDE90601FBF7D2FC04D80721234838306F
:104DF00000F08DFD002507E020483830415D46A0D9
:104E000000F02AFE681CC5B2042DF5DB1A491F39D3
:104E1000CBA840F82410084601F062FD04EB4401E1
:104E200001EB041109AA02EB41010860042004EB24
:104E3000440101EB041102EB410179E00D0A2D2D33
:104E40004379636C652D2D2534782D2D2D2D2E0D58
:104E50000A0000000D0A2D2D693A25642D2D6A3AAD
:104E600025642D2D2534782D2D2D2D2E0D0A000095
:104E7000300000203E06002062000010A00000204C
:104E80000D0A2DC4EA2DD4C22DC8D52DCAB12DB717
:104E9000D62DC3EBA3BA2D25642D2D25642D2D25EC
:104EA000642D2D25642D2D25642D2D25642D2D2E6D
:104EB0000D0A0000E00000200D0A2D2D2D436F6C1F
:104EC0006C656374506572696F643A2D25642D2D8D
:104ED0002D2E0D0A00000000A08601000D0A2D43B2
:104EE0006F6C6C6563744E756D3A2D2532782D2D7F
:104EF0002D2E0D0A000000000D0A2D55706C6F61FB
:104F0000644379636C653A2D25642D2D2D2E0D0A91
:104F100000000000000039400D0A2D416C61726DE7
:104F2000446174613A2D2532782D2D2D2E0D0A0005
:104F3000888000250CE0A81D315C04EB440000EBE8
:104F4000041009AA02EB4000801D4155681CC5B23F
:104F5000042DF0DB06F10A00E090A7F10A00C7B2C9
:104F6000601CC4B20AE1F179B07901EB0020A349D9
:104F7000888008468188A2A000F06EFD9F48808846
:104F8000B0F5B46F04DC08219C48001D00F0BFFCA4
:104F9000A449CBA840F82410084601F0A1FC04EB7A
:104FA000440101EB041109AA02EB4101086002204F
:104FB00004EB440101EB041102EB41018880002560
:104FC0000CE0A81D315C04EB440000EB041009AABE
:104FD00002EB4000801D4155681CC5B2022DF0DB7C
:104FE00006F10800E090A7F10800C7B2601CC4B247
:104FF000C4E0B0798149C8710846C079012801DB55
:10500000012000E000200A280ADA8748FCF7F4FBB8
:105010000A217A48C01D00F07AFC8348FCF7ECFBBB
:105020007648C17981A000F017FD7E49FA39CBA8F6
:1050300040F82410084601F053FC04EB440101EB56
:10504000041109AA02EB41010860012004EB4401AC
:1050500001EB041102EB4101888000250CE0A81D42
:10506000315C04EB440000EB041009AA02EB4000A1
:10507000801D4155681CC5B2012DF0DBF01DE0908C
:10508000F81FC7B2601CC4B278E0002506E0A81D76
:10509000315C5A483C304155681CC5B2042DF6DBE2
:1050A0005649886BFBF75EFB0022664BCDE9000199
:1050B000FBF780FB01D2012000E000200390FBF70A
:1050C000DFFA04904D48C16B0498FBF7A3FB01D2B3
:1050D000012000E000200590FBF7E0FA00225A4B87
:1050E000CDE90601FBF752FB04D80B2143483C30C5
:1050F00000F00DFC002508E040483C30415DAFF277
:10510000E81000F0A9FC681CC5B2042DF4DB454989
:10511000C039CBA840F82410084601F0E1FB04EBAD
:10512000440101EB041109AA02EB410108600420CB
:1051300004EB440101EB041102EB410188800025DE
:105140000CE0A81D315C04EB440000EB041009AA3C
:1051500002EB4000801D4155681CC5B2042DF0DBF8
:1051600006F10A00E090A7F10A00C7B2601CC4B2C1
:1051700004E0701CE090781EC7B200BF00BF062F8D
:105180003FF79CAC002C07DD142C05DC8DF87E432A
:10519000089404E00FE017E007208DF87E0300205C
:1051A0002A4908702A4BCDF800B009A90220089AB4
:1051B000FEF710F91CE0A9F800A019E0A9F800A07A
:1051C00016E0A9F800A013E0A9F800A01F48007895
:1051D000012803D15846E699FCF79AF91C4B0022A6
:1051E00011460B20CDF800B0FEF7F4F800E000BF48
:1051F00000BF0DF5677DBDE8F08F0000A000002026
:105200000D0A2D436F6C6C65637420537461727466
:105210002054696D653A2D2532782D2D2D2E0D0ADD
:105220000000000004010010A08601000D0A2D52AC
:1052300065747279204E756D2D25782D2D2D2E0DCE
:105240000A00000000003940000049403000002002
:105250003E06002010B540F225511A4800F092FA9F
:1052600008B340F22551174800F043FA1648007879
:10527000632806D115A000F0EFFB0020124908704A
:1052800011E0104800F03AFBC1B20F480478601CEE
:105290000D4A10701548015500BF2021094800F043
:1052A00071FA0128F9D00821064800F05EFA0128B9
:1052B00006D10821034800F013FA024800F01EFB53
:1052C00010BD0000004C0040890000200D0A55412F
:1052D000525434205265636569766520427566666E
:1052E0002046756C6C21210D0A000000231000205F
:1052F00008B54FF4A060FDF7D3F825208DF8000025
:1053000003208DF8010000208DF8020001208DF8A7
:1053100003006846FDF78AF826208DF8000001207A
:105320008DF8010000208DF8020001208DF80300A7
:105330006846FDF77BF827208DF8000001208DF8E6
:10534000010000208DF8020001208DF8030068465E
:10535000FDF76CF834208DF8000002208DF8010074
:1053600001208DF802008DF803006846FDF75EF815
:1053700035208DF8000003208DF801008DF8020023
:1053800001208DF803006846FDF750F808BD0000C5
:1053900000B585B0012144F20400FDF7FFFA4FF497
:1053A0000070ADF8100018208DF8130003208DF860
:1053B000120004A92B48FCF71FFC4FF48060ADF8E5
:1053C000100004208DF8130004A92648FCF714FCF3
:1053D0008020ADF8100010208DF8130004A921489A
:1053E000FCF70AFC4FF48070ADF8100010208DF827
:1053F000130004A91B48FCF7FFFB4FF40060ADF855
:10540000100010208DF8130004A91648FCF7F4FBD7
:105410004FF48050ADF8100010208DF8130004A94F
:105420001048FCF7E9FB4FF4165000900020ADF84F
:105430000400ADF80600ADF80800ADF80C000C2033
:10544000ADF80A006946084800F0ECF940F2266120
:10545000054800F04EF90121034800F059F905B064
:1054600000BD0000000801400038014010B51A4896
:105470000088A0F580712B3902D1002016490880E0
:1054800040F22551154800F07DF9B8B140F22551A0
:10549000124800F02EF9114800F030FAC1B20E485F
:1054A00002880088401C0C4B18800D48815400BFB6
:1054B00020210A4800F066F90128F9D008210748A0
:1054C00000F053F9012806D10821044800F008F93A
:1054D000024800F013FA10BD2E00002000380140F1
:1054E0002A01002000B585B001214804FDF736FAF5
:1054F00001210420FDF752FA0420ADF81000182015
:105500008DF8130003208DF8120004A91848FCF749
:1055100073FB0820ADF8100004208DF8130004A9D7
:105520001348FCF769FB4FF4165000900020ADF8CB
:105530000400ADF80600ADF80800ADF80C000C2032
:10554000ADF80A0069460B4800F06CF9012240F200
:105550002441084800F040F901224021054800F0AC
:10556000E3F80121034800F0D3F805B000BD0000C6
:10557000000801400044004000B58BB001210846FE
:10558000FDF7DCF9124800901248019000200290CB
:105590004FF4FA70039000200490802005900020C2
:1055A0000690079020200890C001099000200A90E2
:1055B00069460948FBF714FF01210748FBF75AFE2B
:1055C000002006490860486088600BB000BD0000FC
:1055D00004440040E80900206C000240DC0B00207D
:1055E00010B5002440F224410F4800F0CBF8C8B1B8
:1055F00000210E48FBF73EFE0B480488001D04887E
:1056000040F22441001F00F074F80848FBF7E4FE64
:10561000C0F5FA7084B201200549087001210348E1
:10562000FBF728FE10BD0000004400406C00024063
:105630003000002000B585B00121C804FDF78EF9C7
:1056400001211120FDF7AAF94FF40070ADF8100008
:1056500010208DF8130004A91F48FCF7CDFA4FF471
:105660008060ADF8100018208DF8130003208DF82D
:10567000120004A91848FCF7BFFA4FF40060ADF817
:10568000100004208DF8130004A91348FCF7B4FAA5
:105690004FF4164000900020ADF80400ADF806006D
:1056A000ADF80800ADF80C000C20ADF80A00694612
:1056B0000A4800F0B7F8012240F22551074800F0EF
:1056C0008BF840F22661054800F013F801210348E9
:1056D00000F01EF805B000BD00100140004C004075
:1056E00001F40072B2F5007F00D100BFCA4302800E
:1056F000704710B500220023A1F510646A3C00D168
:1057000000BF0A1201249440A3B2DC43048010BD00
:1057100021B1828942F40052828104E082894DF6EF
:10572000FF731A40828170471AB1838A0B438382C8
:1057300002E0838A8B43838270472DE9F04107465C
:105740000D46164600240CE0295D384600F0DBF8D3
:1057500000BF4021384600F008F80028F9D0601C4E
:1057600084B2B442F0DBBDE8F08102460020B1F51E
:10577000007F00D100BF13880B4201D0012000E060
:105780000020704770B50246002400230025002049
:10579000A1F510666A3E00D100BFC1F3421501F0C9
:1057A0001F03012606FA03F3012D02D19689334027
:1057B00006E0022D02D1168A334001E0968A33407A
:1057C0000C12012606FA04F41688344013B10CB109
:1057D000012000E0002070BDF0B503460024002643
:1057E00000250020A1F510676A3F00D100BF1846D0
:1057F000C1F3421401F01F06012707FA06F5012C38
:1058000001D10C3004E0022C01D1103000E0143042
:105810001AB107682F43076002E00768AF430760CB
:10582000F0BD00002DE9F04786B005460E46002485
:10583000A24600BFA1460027B08900B100BF2F4695
:105840002C8A4CF6FF700440F08804432C82AC890B
:105850004EF6F3100440B08831890843718908433B
:105860000443AC81AC8A4FF6FF400440B089044346
:10587000AC8201A8FDF7C2F81F48874202D1DDF8CB
:1058800010A001E0DDF80CA0A88910F4004F08D0AA
:105890000AEBCA0000EB0A1031684900B0FBF1F8CE
:1058A00007E00AEBCA0000EB0A1031688900B0FB80
:1058B000F1F86420B8FBF0F004012009642101FB39
:1058C0001089A88910F4004F08D0322000EBC900DD
:1058D000B0FBF1F000F00700044308E0322000EBD9
:1058E00009106421B0FBF1F000F00F0004432C819B
:1058F00006B0BDE8F0870000003801400146888806
:10590000C0F308007047C1F308028280704710B5E9
:1059100003460C4600210020024610BD10B503E0EE
:1059200003A000F099F800E0FAE700BF10BD000006
:105930000D0A5761726E6E696E6721212055736181
:1059400067654661756C74204F6363757265640D9D
:105950000A0000000020014908607047082C004040
:1059600040F08001014A116070470000002C0040A7
:105970000120014908607047A480054210B508481D
:10598000008800280ADD0748007800F03DF8FFF79E
:10599000E1FF03480088401E0149088010BD000057
:1059A0002800002078000020F8B506460C46154671
:1059B0004FF4A060FCF774FD0121C802FCF7CEFF94
:1059C0001048007830400F490870284600F024F84D
:1059D000204600F02DF80B480078FFF7C1FF0020AB
:1059E0008DF800008DF801008DF8020001208DF87F
:1059F00003006846FCF71AFDFFF7ACFFFFF7B8FF9E
:105A0000F8BD00007800002000F07F01014A11601D
:105A100070470000002C00400021044A126822F464
:105A2000C0710143014A116070470000042C00401E
:105A300008B5002100910749096821F07F01009114
:105A400000F07F01009A11430091024A0099116011
:105A500008BD0000042C00400FB4054B10B503A98D
:105A6000044A029800F0C6F810BC5DF814FB000070
:105A7000516300089C00002002E008C8121F08C102
:105A8000002AFAD170477047002001E001C1121FBF
:105A9000002AFBD1704700002DE9FF5FDDE90220FD
:105AA000010DDDF838B0024310D10F9801244CA24B
:105AB000012808D0002100980F9BC0E90021C0E90F
:105AC0000243BDE8FF9F6FEA0B01F4E7A1F2FF314B
:105AD00044F6105041430D140F9801280ED0A5EB49
